:020000040800F2
:10000000903100209D010008AB2E00084B2800080D
:10001000A92E0008F70B00080D3F000800000000A3
:100020000000000000000000000000006135000832
:10003000B90D000800000000A533000801360008D3
:10004000B7010008B7010008B7010008B7010008B0
:10005000B7010008B7010008B7010008B7010008A0
:10006000B7010008B7010008B7010008D90C000863
:10007000E50C0008B7010008B7010008B701000847
:10008000F10C0008B7010008B7010008B70100082B
:10009000B7010008B7010008B7010008B701000860
:1000A000B701000815380008B7010008B7010008BB
:1000B000B7010008B7010008B7010008B701000840
:1000C000B7010008B7010008B7010008B701000830
:1000D000B7010008DD3E0008E93E0008F53E0008D3
:1000E000B7010008B7010008B7010008B701000810
:1000F000B7010008B7010008B7010008B701000800
:10010000B7010008B7010008B7010008B7010008EF
:10011000B7010008FD3A0008B7010008B701000860
:10012000B7010008FD0C0008090D0008B701000820
:10013000B70100080000000000000000B70100083F
:10014000B7010008B7010008B7010008B7010008AF
:10015000B7010008B7010008B7010008013F000817
:10016000B7010008B7010008B7010008B70100088F
:10017000B7010008B70100080000000000000000FF
:10018000B7010008B7010008DFF80CD000F0CAFA88
:1001900000480047E94500089031002006488047A4
:1001A00006480047FEE7FEE7FEE7FEE7FEE7FEE75C
:1001B000FEE7FEE7FEE7FEE7993600088901000842
:1001C0002DE9F05F0546002092469B46884606468C
:1001D000814640241BE0284641464746224600F01F
:1001E00094F853465A46C01A914110D31146184606
:1001F000224600F016F82D1A67EB01084F462246FA
:100200000120002100F00DF817EB00094E41201EDF
:10021000A4F10104DFDC484631462A464346BDE8E6
:10022000F09F202A04DB203A00FA02F100207047F8
:100230009140C2F1200320FA03F319439040704724
:1002400040EA01039B0703D009E008C9121F08C058
:10025000042AFAD203E011F8013B00F8013B521ED8
:10026000F9D27047D2B201E000F8012B491EFBD24F
:1002700070470022F6E710B513460A4604461946B1
:10028000FFF7F0FF204610BDCAB2401E10F8011F54
:100290008A4202D00029F9D10020704710B500220F
:1002A00000E0521C835C8C5CA34201D1002BF8D18E
:1002B000D8B2E1B2401A10BD70B5064603F038FE60
:1002C000046805460A220021304600F07DF82C60C3
:1002D00070BD01F0004330B421F0004150EA01024A
:1002E00006D00A0DA2F56072C1F31301002A02DCE8
:1002F00030BC00207047440F44EAC104C100E0183C
:1003000030BC00EBC25000F097B8202A04DB203A42
:1003100021FA02F00021704721FA02F3D040C2F125
:100320002002914008431946704700000FB4002393
:1003300000B589B00CA900910B996FF00042CB6019
:100340001E4B06931E4B07930423CDE901321D4A31
:10035000089202466B46002000F098FA09B05DF85A
:1003600014FB70B586B006464FF0FF300091CDE922
:100370000101002015460C4604903246694604A847
:10038000FFF7D4FF02460498211825B108B10846AA
:1003900000E020462860049800280DD0002A02DDE5
:1003A0000098884208D0081B0094CDE90104324629
:1003B000694604A8FFF7BAFF06B070BDC50A000879
:1003C000E30A0008510700082DE9F04791460F465F
:1003D00080460446002614F8015B2DB100F0B4F904
:1003E0000068405DC007F6D12B2D02D02D2D18D00E
:1003F000641E4A463946204600F084FB27B139681E
:10040000A14201D1C7F8008071054FF002040BD55D
:100410004042002803DD03F08BFD0460A007BDE827
:10042000F08746F48066E4E70028F8DA03F080FD00
:1004300004606FF00040F2E70029A8BF7047401C3D
:10044000490008BF20F00100704710B4B0FA80FCEA
:1004500000FA0CF050EA010404BF10BC704749B127
:10046000CCF1200421FA04F411FA0CF118BF012197
:1004700021430843A3EB0C01CB1D4FEA00614FEA77
:10048000102042BF002010BC704700EBC350104446
:100490000029A4BF10BC7047401C490008BF20F0D1
:1004A000010010BC704710B5141E73F1000408DA87
:1004B000401C41F1000192185B411A4301D120F028
:1004C000010010BD2DE9F04D92469B4611B1B1FAE5
:1004D00081F202E0B0FA80F220329046FFF7A1FEEE
:1004E00004460F4640EA0A0041EA0B0153465A46C9
:1004F000084313D0114653EA010019D0C8F1400255
:100500005046FFF702FF05460E4650465946424602
:10051000FFF787FE084305D0012004E02046394656
:10052000BDE8F08D0020054346EAE0762C433743D2
:100530000A986305E40AA0EB08000022FD0A44EAD9
:1005400047540A3002D500200146E9E70105101999
:100550006941DDE9084500196941BDE8F04DA2E7B0
:100560002DE9FE4F81EA030404F0004421F000412C
:1005700000944FF0000B23F0004350EA01045ED0DA
:1005800052EA03045BD0C3F30A54C1F30A552C4466
:10059000A4F2F3340194A0FB0254C1F3130141F41B
:1005A0008011C3F3130343F4801301FB024400FBE7
:1005B000034E840A970A44EA815447EA8357A4FB0E
:1005C000076802958D0A05FB07854FEA932C04FB0B
:1005D0000C542705029D4FEA065847EA1637B5EB3B
:1005E00008056EEB070C870E920E47EA811742EA68
:1005F0008312A7FB0201B6EB0B0164EB00042B0D89
:1006000043EA0C335E1844EB1C50DA465146E7FBD4
:100610000201C5F313044FEA0B3343EA14534FEAC4
:100620000432019C43EA0603A4F10C040294009CEA
:10063000CDE900B4FFF746FF03B0BDE8F08F00201E
:100640000146F9E72DE9F04D81EA030404F0004B7F
:1006500021F0004514464FF0000A23F0004150EA13
:10066000050220D054EA01021DD0C5F30A57024604
:10067000C5F31303C1F31300C1F30A5640F4801508
:1006800043F48013A7EB0608101BD64608F2FD388A
:1006900073EB050002D308F1010801E092185B41F9
:1006A000B8F1000F03DA00200146BDE8F08D00200C
:1006B0004FF48011064684460EE0171B73EB0507C6
:1006C00005D3121B63EB050306434CEA010C4908F2
:1006D0004FEA300092185B4150EA0107EDD152EA2F
:1006E000030012D082EA040083EA0501084305D022
:1006F000101BAB4106D20122002306E000224FF07E
:10070000004302E06FF0010253101AEB06004CEBBD
:10071000085110EB0A0041EB0B01BDE8F04DFFF76B
:10072000C2BE0000064C074D06E0E06840F0010341
:1007300094E8070098471034AC42F6D3FFF728FD41
:1007400034510008545100080048704730510008E7
:1007500010B50446FFF7F8FF0068005D00F00100E7
:1007600010BD00002DE9FF4F087883B09946FF289F
:1007700005D0491C2D2804D00024002008E00020CA
:100780000BE00124F9E700EB800003EB4000491C7B
:100790000B78FF2BF7D104B1404200230293147869
:1007A00019461D462D2C01D02B2C04D1521C2D2C6A
:1007B00013D000240294AA461478FF2C0FD00A25E7
:1007C000A3FB057801FB05814FF0000C03FB0C1126
:1007D000521CE3194AEB0101EEE70124EAE78144E8
:1007E00053EA010002D019F5C87F06DA0398002108
:1007F000C0E9001107B0BDE8F08F0025AE4E2F46CE
:10080000DFF8B882184600F0DAF9CDE90001B9F155
:10081000000002DAC9F1000400E004460023A74A00
:100820001AEB030B42EB045A12E0E00707D02A460A
:10083000334638464146FFF793FE074688462A4628
:10084000334610461946FFF78BFE05460E466410E8
:10085000002CEAD1DDE90001B9F1000F5A465346F8
:1008600006DAFFF7EFFE3A464346FFF7EBFE05E0F8
:10087000FFF776FE3A464346FFF772FE029A0AB148
:1008800081F00041039AC2E90001B3E72DE9FF4F6F
:100890001F468DB0D7E901464FF0FF382E20454660
:1008A0004FF000090B90B9696D1C0E988847396AA2
:1008B000824688470028F6D1BAF1FF3F0AD024F4D7
:1008C000D064002E11DDBAF12B0F08D0BAF12D0F34
:1008D0000BD102E0404611B08DE744F48064B96961
:1008E0006D1C0E9888478246761E6946600501D5C4
:1008F0002D2000E02B208DF8000001F1010B0DF1FF
:10090000200809E0B9696D1C0E98884782460F9847
:1009100044F40074761E0560002E02DDBAF1300F3B
:10092000F0D00B998A453ED144F0800406E00F993F
:10093000681CA9F1010944F400740860B9696D1CD0
:10094000761E0E98884782463028F0D02BE00B990F
:100950008A4505D1200603D444F08004761E18E0B1
:10096000504603F055FB08B30DF11301761E44F415
:1009700000748B4508D2AAF130000BF8010B200659
:1009800007D5A9F1010003E0200602D409F1010016
:100990008146A00502D50F99681C0860B9696D1CD5
:1009A0000E9888478246002ED1DC53E0002E51DDA0
:1009B000BAF1650F02D0BAF1450F4BD1A00549D568
:1009C000B9696D1C24F44074761E0E9888478246DF
:1009D000002E0CDD2B2804D0BAF12D0F07D144F4E2
:1009E0008074B9696D1C0E9888478246761EE005B2
:1009F00001D52D2100E02B2108F8011BCDF82C801A
:100A000021E00DF12901761E44F4007488450CD2D2
:100A1000AAF1300010F0FF0088F8000002D10B9915
:100A2000884509D908F1010806E0E00501D5244808
:100A300001E042F20F708146B9696D1C0E9888473B
:100A400082460F980560002E04DD504603F0E0FA60
:100A50000028D6D1F9690E988847FF208BF800004E
:100A600088F800000020069007904B466A4608A9C7
:100A700006A8FFF777FEA00502D46FF001002AE771
:100A800014F0240F0AD0E00714D1DDE9061238680B
:100A9000031D3B600068C0E900120BE0DDE90601C0
:100AA000FFF717FC0146E00704D13868021D3A60E1
:100AB0000068016028460EE7000014400000F03F87
:100AC000F1D8FFFF426842B1016811F8013B23B140
:100AD000521EC0E90012184670470121C160881EED
:100AE000704742685AB1C368016843B983688B4252
:100AF00005D0491E521CC0E90012002070474FF07B
:100B0000FF3070472DE9F05F8246007800271546D8
:100B10008B460AF10104B946302801D09DB113E09B
:100B200014F8010B0127782803D0582801D045B1CB
:100B30000AE00DB1102D07D10027102514F8010B84
:100B400002E0082500E00A250026B0460EE005FB7D
:100B5000080005FB06F1012701EB10461FFA80F89B
:100B6000B6F5803F00D3B94614F8010B294600F0D2
:100B700018F80028EBDABBF1000F05D00FB1641EA6
:100B800000E05446CBF80040B9F1000F06D003F066
:100B9000CFF902210160C81EBDE8F09F48EA064077
:100BA000FAE73A2800D2303820F02002412A01D357
:100BB000A2F13700884201D34FF0FF3070470EB5E5
:100BC00040F2334202920022CDE900221346FFF7A1
:100BD00079FC03B000BDB5EEC00AF1EE10FA01D207
:100BE000B1EE400A7047B5EEC00AF1EE10FA01D23C
:100BF000B1EE400A7047FEE770B50D4604464B2142
:100C000000F017F8284600F06BFB2046BDE8704066
:100C1000002100F00EB810B504466421FFF7ECFF88
:100C2000642000F05DFB2046BDE810406421FFF722
:100C3000E3BF10B5642900D9642102681368DA6A39
:100C4000446864204CB1042C0CD002FB01F2B2FBCE
:100C5000F0F0082C0BD0186410BD4A43B2FBF0F042
:100C6000586310BD4A43B2FBF0F0986310BDD863DF
:100C700010BDD0E90013002209683BB1042B07D056
:100C8000082B07D00A6403C801F02EBA4A63FAE7BA
:100C90008A63F8E7CA63F6E7B4EEE00AF1EE10FA09
:100CA00002D2B0EE600A7047B4EEC10AF1EE10FA5B
:100CB000F9DDB0EE410A7047B4EEE00AF1EE10FA49
:100CC00002D2B0EE600A7047B4EEC10AF1EE10FA3B
:100CD000F9DDB0EE410A7047014800F08FB900001D
:100CE00060030020014800F089B900008004002062
:100CF000014800F083B9000020040020014800F002
:100D00007DB90000E0040020014800F077B9000040
:100D1000C003002001681823CAB2103AB2FBF3F2F4
:100D2000054B6FF30901032A9B5CC36500D9091DBC
:100D30008165084670470000A450000810B50146C0
:100D400000208B698A6A4FF0C07453B1B3F5005F1D
:100D500015D072B1012A0CD0022A0AD0032A09D177
:100D600004E01AB1012A06D0022A03D1C96AC901D6
:100D700000D5012010BDC96AA142FAD010BD002AD9
:100D8000F7D0012AF2D0022AF3D0032AF3D010BD03
:100D900030B50468256825F4802525600468636003
:100DA0008368402B036803D099600068C26030BD3F
:100DB0009A600068C16030BD704772B6FEE70000FF
:100DC00010B51C48FFF755FF1B4802F0EDFA4FF431
:100DD000FA6000F085FA04F049F81649012208315A
:100DE00016A004F05BF8134901220C3114A004F0A2
:100DF00055F810490122103112A004F04FF80D49A6
:100E00000122143110A004F049F803F04DFA03F068
:100E1000B3FF03F06DFCB2EE0E0A02F03DF90020C4
:100E200002F0D8F902F0B8FBBDE810400148FFF726
:100E3000F2BE000014000020245000084B500000B7
:100E40004B4900004B44000053540000084810B5C3
:100E5000017841B1417831B1D0ED010A90ED020A3B
:100E600002F0CEF808B1002010BD012010BD000036
:100E7000C005002003480078032802D0032003F0B7
:100E800007BC7047840000200148007870470000CC
:100E90008400002070B500F02DFB04462648274D45
:100EA000407800B1EC60264E307800B12C61287893
:100EB00078B101281BD002282DD0032808D103F0D7
:100EC0002BF9002804D16868201AB0F5FA7F1DD8E4
:100ED00070BDFFF7BBFF0028FAD003F02DF9002802
:100EE000F6D003F005F90028F2D001201FE0686871
:100EF000251A03F0FDF8044603F01EF930B1B5F5EC
:100F0000FA6F05D3002CE3D1022010E000200EE0A0
:100F1000002CFBD070BD03F00FF938B1307828B148
:100F2000707818B103F0F8F80028F3D00320BDE87A
:100F3000704003F0ADBB0000BC0000208400002026
:100F4000C00500202DE9F0410446876D00F0D2FA7B
:100F5000064694F835000025022806D080206065FA
:100F600084F834500120BDE8F0812068016821F048
:100F7000160101602068416921F080014161206C07
:100F800008B9A06C20B12068016821F00801016057
:100F90002068016821F0010101600CE000F0AAFA6C
:100FA000801B052807D920206065032084F83500C0
:100FB00084F83450D7E720680068C007EED194F871
:100FC0005C103F208840B860012084F8350084F828
:100FD00034500020C7E790F83510022903D0802153
:100FE000416501207047052180F8351000680168CF
:100FF00021F0010101600020704700002DE9F84355
:1010000004464FF00009CDF8009063484FF41651A4
:10101000A56D0068B0FBF1F72E6894F85C1008200D
:1010200000FA01F131420FD021680A6852070BD54E
:101030000A6822F004020A6094F85C108840A860F4
:10104000606D40F00100606594F85C104FF001089D
:1010500008FA01F0304208D021684969090604D530
:10106000A860606D40F00200606594F85C10042098
:101070008840304208D021680968890704D5A860F3
:10108000606D40F00400606594F85C1010208840AA
:10109000304218D021680968090714D5A860206873
:1010A0000168490304D50068000308D5A16C07E076
:1010B0000168C90503D4016821F008010160216CB1
:1010C00009B12046884794F85C10202088403042BF
:1010D00031D021680968C9062DD5A86094F835007B
:1010E00005282068016806D0490347D50068000339
:1010F0001DD4616C1CE021F016010160206841697B
:1011000021F080014161206C08B9A06C20B12068F9
:10111000016821F00801016094F85C103F208840CC
:10112000A86084F8358084F83490216D1FE0E16B6D
:1011300009B120468847606D00282BD0606DC0073C
:1011400014D0052084F835002068016821F00101E1
:1011500001600098401C0090B84203D820680068E5
:10116000C007F6D184F8358084F83490E16C00290A
:1011700010D001B02046BDE8F04308470168C9051A
:10118000D5D4016821F01001016084F8358084F81D
:101190003490CCE7BDE8F883000000202DE9F04151
:1011A000044600F0A7F906465CB1022084F8350039
:1011B000002584F834502068016821F001010160A5
:1011C0000DE00120BDE8F08100F094F9801B0528B6
:1011D00005D920206065032084F83500F2E72068F7
:1011E0000068C007F0D12268116820480140D4E9A6
:1011F00001031843D4E903363343184363691843A2
:10120000A3691843E3691843236A18430843616AD2
:10121000042903D1D4E90B13194308431060206853
:101220004069666A20F0070130460E430127042812
:101230000CD1A06A0643E06A40B12046FFF77EFD6C
:1012400020B14020606584F83570BAE720684661B7
:101250002046FFF75FFD94F85C203F2191408160BC
:10126000656584F835700020ACE700003F8010F021
:101270002DE9F0410446866D90F8340000250128E0
:101280000DD0012084F8340094F835700020012F2F
:1012900007D084F8340002252846BDE8F0810220FA
:1012A000FBE7022784F8357060652046FFF770FD84
:1012B00094F85C103F208840B0602068016841F0DD
:1012C00016010160206C20B12068016841F008011E
:1012D00001602068016841F001010160DCE7000065
:1012E00070B5044600F006F90546601C02D00448BB
:1012F0000078044400F0FEF8401BA042FAD370BD11
:10130000C80000202DE9F84FDFF8BCA1002201251C
:1013100003264FF00F090AF1040BAAF1040E00BFD7
:101320000B6805FA02F42340A34270D10F7907F04D
:101330000307012F01D0022F16D187684FEA420818
:1013400006FA08FC27EA0C07D1F80CC00CFA08FCD6
:101350004CEA070CC0F808C04768A7430C79C4F3EF
:10136000001494403C4344600C79E443A4070AD041
:10137000C4684FEA420C06FA0CF7BC438F6807FAC0
:101380000CF72743C7600C7904F00304022C12D138
:10139000D40800EB840CDCF820405707FF0E09FA54
:1013A00007F824EA0804D1F8108008FA07F848EA98
:1013B0000408CCF8208004684FEA420C06FA0CF7C7
:1013C000BC430F7907F0030707FA0CF727430760C0
:1013D0004C6814F4403F70D03C4C276847F4804779
:1013E0002760246822F0030704F480440094384CFA
:1013F00007EB040CDCF8084897074FEA177809FA5E
:1014000008F7BC43334FB84202D1002724E054E030
:10141000314FB84201D101271EE0304FB84201D10F
:10142000022719E02E4FB84201D1032714E02D4FB7
:10143000B84201D104270FE02B4FB84201D1052754
:101440000AE02A4FB84201D1062705E0284FB842EA
:1014500001D1072700E0082707FA08F72743CCF84F
:101460000878DAF800405746D1F804C09C435FEA98
:10147000CC2C00D51C433C60DBF800405F46D1F823
:1014800004C09C435FEA8C2C00D51C433C60DEF812
:1014900000407746D1F804C09C435FEA8C3C00D5FD
:1014A0001C433C60084F083F3C68D1F804C09C4393
:1014B0005FEACC3C00D51C433C60521C102AFFF470
:1014C0002FAFBDE8F88F0000083C014044380240CF
:1014D00000300140000002400004024000080240C9
:1014E000000C0240001002400014024000180240AC
:1014F000001C02400148806870470000C8000020BE
:10150000024881680278114481607047C800002059
:101510000B4810B5016841F400710160016841F4A5
:1015200080610160016841F480710160032000F076
:101530006FF80F2000F006F800F024F8002010BD2E
:10154000003C024070B50D4D04464FF47A71287886
:10155000B1FBF0F00A490968B1FBF0F000F00AFBBA
:1015600048B9102C07D200222146501E00F030F856
:1015700000206C6070BD012070BD0000C80000201C
:10158000000000200A4808B5016841F4804101606C
:10159000006800F4804000900548001F016841F099
:1015A00080510160006800F08050009008BD00008C
:1015B00044380240002809DB00F01F02012191405D
:1015C0004009800000F1E020C0F8001170470000E1
:1015D000F0B40E4B1B680C46C3F30223C3F107059E
:1015E000042D00D90425191D072901D2002300E08C
:1015F000DB1E012606FA05F1491E214099409E4056
:10160000761E16403143F0BC02F081BC0CED00E0C8
:10161000064900F0070208684FF6FF03184040EA49
:101620000220034A10430860704700000CED00E000
:101630000000FA052DE9F0470E46050065D0DFF8F9
:101640001481D8F80000F7B200F00700B04207D2CA
:1016500088F80070D8F8000000F00700B04254D1BC
:1016600028683D4C810712D5400703D5206840F417
:10167000E05020602878000703D5206840F46040DF
:1016800020602068A96820F0F000084320602878D6
:10169000C0072DD0304968680839012812D00228C7
:1016A00013D0032811D00968890700292DDA216891
:1016B00021F0030101432160FFF71CFF814641F245
:1016C000883A0EE009688903EFE709688901ECE7C9
:1016D000FFF710FFA0EB0901514502D90320BDE837
:1016E000F0872068696800F00C00B0EB810FEFD143
:1016F000D8F80010404601F00701B14207D9077041
:10170000006800F00700B04201D00120E7E7287828
:10171000400705D52068E96820F4E05008432060C0
:101720002878000706D52068296920F4604040EA3F
:10173000C100206000F038F82168084AC1F30311A5
:10174000515CC8400649086006480068FFF7FAFE89
:101750000020C4E7003C0240083802400C5000085A
:1017600000000020CC0000200448054900680968FA
:10177000044AC1F38221515CC84070470000002038
:10178000083802401C5000080448054900680968F0
:10179000044AC1F34231515CC84070470000002048
:1017A000083802401C500008154810B5006810F0B9
:1017B0000C02144813D04110042A0FD0082A0ED16D
:1017C0000F4C241F2268236802F03F025B0207D5FA
:1017D0002068C0F38810A0FB010106E0084610BD98
:1017E0002168C1F38811A1FB00010023FEF7E8FC8A
:1017F0002168C1F30141491C4900B0FBF1F010BD63
:10180000083802400024F4002DE9F84F04006ED09F
:101810002078DFF84C93C007A9F104054AD009F1FC
:1018200004000168C1F38101012908D00068C0F3F8
:10183000810002280AD1D9F80000400206D52868A4
:10184000800337D560680028E1D033E06068B0F5E8
:10185000803F10D0B0F5A02F286810D020F4803041
:101860002860286820F4802028606068A8B1FFF70D
:1018700041FE06460DE0286840F48030F4E740F46D
:1018800080202860F7E700BFFFF734FE801B642844
:1018900073D828688003F7D50CE0FFF72BFE0646C7
:1018A00005E000BFFFF726FE801B6428F0D82868FB
:1018B0008003F7D42078DFF8AC8280074FF0000A6D
:1018C0003ED5A748001D016811F00C0F08D0006834
:1018D000C0F3810002280BD1D9F80000400207D4E0
:1018E0002868800716D5E068012800D112E033E1AE
:1018F000E068B8B10120C8F80000FFF7FBFD06461C
:1019000005E000BFFFF7F6FD801B0228C0D828685D
:101910008007F7D52868216920F0F80040EAC10067
:1019200028600DE0C8F800A0FFF7E4FD064604E0DB
:10193000FFF7E0FD801B02281FD828688007F7D436
:101940002078000722D5864F87486169703771B1CA
:1019500001210160FFF7CEFD064604E0FFF7CAFD56
:10196000801B022809D838688007F7D50EE0C0F838
:1019700000A0FFF7BFFD064605E082E0FFF7BAFDD5
:10198000801B02287DD838688007F7D4207840076C
:1019900068D5DFF8CCB100270BF13C0BDBF8000079
:1019A000C0000BD4DBF8001041F08051CBF80010E0
:1019B000DBF80000012700F0805000906B4E30688B
:1019C000C00510D4306840F480703060FFF792FD9D
:1019D000009005E0FFF78EFD0099401A022850D8CC
:1019E0003068C005F6D55E4EA0686C3601280FD071
:1019F0000528306810D020F001003060306820F0F9
:101A000004003060A068B8B1FFF774FD00900FE0EB
:101A1000306840F00100F4E740F004003060F7E780
:101A2000FFF768FD0099411A41F28830814266D87B
:101A300030688007F4D50EE0FFF75CFD009007E00A
:101A4000FFF758FD0099411A41F28830814256D87B
:101A500030688007F4D42FB1DBF8001021F08051FA
:101A6000CBF80010A069C8B33D49091D0968C1F34E
:101A7000810102294AD00228504607D0C8F86000E8
:101A800000E03CE0FFF736FD04463BE04746C8F87F
:101A90006000FFF72FFD064605E000BFFFF72AFDB7
:101AA000801B02282BD828688001F7D4D4E90701CD
:101AB0000843A16A2E4A490802EB0141626A41EAE1
:101AC0008211084394F82C1040EA0161C9F8001013
:101AD00001203866FFF70EFD044606E03EE000BF39
:101AE000FFF708FD001B022809D828688001F7D5F8
:101AF00034E000BFFFF7FEFC001B022802D90320E0
:101B0000BDE8F88F28688001F4D427E00128F7D0D9
:101B1000D9F80000E26900F4800191421CD1226AE8
:101B200000F03F01914217D147F6C071626A01404F
:101B3000B1EB821F10D1A26A4FF0FF3300F44031A5
:101B400003EB5202B1EB024F06D194F82C1000F0D7
:101B50007060B0EB016F01D00120D1E70020CFE72A
:101B60000438024000004742800E474200700040A7
:101B70000000FFFF10B5401EB0F1807F01D30120AF
:101B800010BD4FF0E02460610F21601702F0BFF933
:101B90000020A06107202061002010BD7047704721
:101BA00070B590F83C20012A32D0012480F83C40E6
:101BB000022280F83D2003685A689D6822F0700672
:101BC0000A6832435A60134B02689A4214D0B2F149
:101BD000804F11D0104B9A420ED0104B9A420BD02E
:101BE0000F4B9A4208D00F4B9A4205D00E4B9A42A7
:101BF00002D00E4B9A4204D1496825F08003194364
:101C0000916080F83D40002180F83C10084670BD8E
:101C1000022070BD000001400004004000080040A8
:101C2000000C00400004014000400140001800404A
:101C300010B5040003D094F83D0010B107E0012076
:101C400010BD002084F83C00204600F01FF8022060
:101C500084F83D00211D206801F0E2FD012084F898
:101C6000460084F83E0084F83F0084F8400084F881
:101C7000410084F8420084F8430084F8440084F86A
:101C8000450084F83D00002010BD000008B5016843
:101C90001C48814212D11C48016841F001010160D9
:101CA0000068002200F00100009001211920FFF7D8
:101CB0008FFCBDE808401920FFF77CBC1248001FCC
:101CC000B1F1804F0BD0114A914210D1016841F01F
:101CD00002010160006800F00200009008BD016888
:101CE00041F001010160006800F00100F5E7084AD9
:101CF0009142F3D1016841F004010160006800F0F5
:101D00000400EAE7000001404438024000040040BB
:101D10000008004070B5044690F83C0000250128FA
:101D200017D0012684F83C60022084F83D0020682A
:101D3000826822F0770222F47F428260086850288D
:101D400038D00DDC20284FD005DC90B3102811D1FD
:101D50004AE0022070BD302846D040280AD13BE03E
:101D600060282FD070280DD0B0F5805F03D0B0F57B
:101D7000005F12D0012584F83D60002084F83C000B
:101D8000284670BDCB68D1E90121206801F0BDFD76
:101D90002068816841F0770109E0CB68D1E9012131
:101DA000206801F0B2FD2068816841F480418160C3
:101DB000E1E719E0CA684968206801F07BFE50211C
:101DC000206806E0CA684968206801F084FE602146
:101DD000206801F0A4FDCEE7CA684968206801F0D8
:101DE00069FE40212068F4E7226801461046F0E7CA
:101DF00070472DE9F04104460068C66805694FF058
:101E00000007A90713D5B10711D5F91E01610120FB
:101E10002077206880698007204602D0FFF7E8FF1E
:101E200004E000F0CBF8204600F05DF92777680762
:101E300016D5700714D521686FF0040008610220E0
:101E400020772068806910F4407F204602D0FFF799
:101E5000CFFF04E000F0B2F8204600F044F9277705
:101E6000280715D5300713D521686FF008000861E1
:101E7000042020772068C0698007204602D0FFF741
:101E8000B7FF04E000F09AF8204600F02CF927771D
:101E9000E80616D5F00614D521686FF01000086129
:101EA000082020772068C06910F4407F204602D0C7
:101EB000FFF79EFF04E000F081F8204600F013F9E0
:101EC0002777E80708D0F00706D021686FF00100F7
:101ED0000861204600F06CF9280608D5300606D5C2
:101EE00021686FF0800008612046FFF757FE680602
:101EF00008D5700606D521686FF0400008612046BD
:101F000000F06EF9A8060AD5B00608D521686FF072
:101F1000200008612046BDE8F041FFF740BEBDE863
:101F2000F081000030B587B0044614216846FEF702
:101F3000A0F9246800211D4A02231D48B4F1804FF6
:101F40000CD01C4DAC421ED1146844F00204146045
:101F50001268009302F00202059221E0146844F036
:101F600002041460126802F0020205924FF440620B
:101F70000092CDE901310391012104916946FFF7F7
:101F8000C1F907B030BD0C4DAC42FAD1146844F031
:101F900002041460126802F002020592C02200924C
:101FA000CDE90131CDE90313E8E700003038024004
:101FB000000402400004004000080040704770B573
:101FC000044690F83C0000260D4601280FD0012061
:101FD00084F83C006AB1042A1DD0082A2FD00C2AAC
:101FE0003FD00126002084F83C00304670BD02201E
:101FF00070BD206801F09CFC2068816941F00801F7
:1020000081612068816921F0040181612068816912
:102010002A69114311E0206801F0BAFC2068816947
:1020200041F4006181612068816921F480618161EE
:10203000206881692A6941EA02218161D2E720682A
:1020400001F0DCFC2068C16941F00801C161206831
:10205000C16921F00401C1612068C1692A69114385
:1020600011E0206801F0FEFC2068C16941F40061C4
:10207000C1612068C16921F48061C1612068C169C2
:102080002A6941EA0221C161ACE710B5040003D01E
:1020900094F83D0010B107E0012010BD002084F845
:1020A0003C00204600F01EF8022084F83D00211D6F
:1020B000206801F0B5FB012084F8460084F83E005A
:1020C00084F83F0084F8400084F8410084F842001E
:1020D00084F8430084F8440084F8450084F83D0007
:1020E000002010BD7047704710B50446022249B168
:1020F00004290ED0082913D094F84100012816D0E5
:10210000012010BD94F83E000128F9D184F83E204A
:102110000FE094F83F000128F2D184F83F2008E056
:1021200094F840000128EBD184F8402001E084F8C5
:1021300041200122206801F0DBFB16492068164A85
:10214000884201D0904203D1436C43F4004343647E
:102150002068884213D0B0F1804F10D00F498842D8
:102160000DD00F4988420AD00E49884207D09042CC
:1021700005D00D49884202D00C49884204D18168BB
:1021800001F00701062903D0016841F00101016057
:10219000002010BD00000140000401400004004088
:1021A00000080040000C00400040014000180040C2
:1021B0000068094988420ED1084905220868401C78
:1021C000B0FBF2F302FB13020860002A03D0C82818
:1021D00001D300200860704700000140800000200B
:1021E000704738B5044690F84200202801D00220FC
:1021F00038BD51B14AB10120206300206063204600
:1022000001F01CFE216B012901D0012038BD21689D
:102210000A684968009121680C3151E8002F42F0AA
:10222000100241E80023002BF5D138BD00680A49AF
:10223000884201D102F048BE0849884201D102F02B
:102240001BB80749884201D102F0C8BE054988423F
:1022500001D101F0C7BA70470010014000140140DD
:10226000004800400044004070470000F8B5016895
:1022700004460868CA684B6910F00F0F4FF000055C
:1022800059D003F0010602F49077374365D0C107B7
:1022900005D0D10503D5616C41F0010161644107AE
:1022A00005D5D90703D0616C41F002016164810753
:1022B00005D5D90703D0616C41F0040161640107C1
:1022C00007D502F02001314303D0616C41F00801D1
:1022D0006164616C00293AD0800604D5900602D56D
:1022E000204601F0C4FC20684069616CC0F3801096
:1022F000090700D460B3204601F084FC20684069DF
:10230000400621D52068143050E8001F21F040011C
:1023100040E80012002AF5D1E06BA8B172490165CE
:10232000E06BFEF758FE002811D0E06B016D01B0A4
:10233000BDE8F040084783060FD593060DD520462B
:10234000BDE8F84001F093BC2046FFF78DFFF8BDD3
:102350002046FFF789FF6564F8BD266B2023012E18
:102360007ED1C6067CD5D6067AD508684868009026
:1023700048694FF0020640064DD5E26B1068406890
:102380004FF480770004000C3AD0A18D814237D9F8
:10239000E085D069B8422DD020680C3050E8001F8D
:1023A00021F4807140E80012002AF5D12068143031
:1023B00050E8001F21F0010140E80012002AF5D189
:1023C0002068143050E8001F21F0400140E800125E
:1023D000002AF5D184F84230256320680C3050E89B
:1023E000001F21F0100140E80012002AF5D1E06B37
:1023F000FEF7A8FD6663A08DE18D401A81B206E06C
:10240000A18D8142A8D1D069B842A5D1666320468A
:10241000FFF70CFFF8BDA08DE18D401A81B2E08D71
:102420000028F7D00029F5D020680C3050E8002FA4
:1024300022F4907240E80027002FF5D12068143074
:1024400050E8002F22F0010240E80027002FF5D1CC
:1024500084F84230256320680C3050E8002F00E0FB
:1024600006E022F0100240E80023002BF3D1CDE774
:1024700005062BD5150629D594F841002128C9D188
:10248000A068B0F5805F01D12069B0B1206A411C1D
:102490002162216800784860E08C401E0004000C36
:1024A000E084B7D12068C16821F08001C160206854
:1024B000C16841F04001C160F8BD206A0088C0F3E6
:1024C00008004860206A801C2062E5E74006F3D5DA
:1024D0005006F1D5CA68204622F04002CA6084F84E
:1024E000413000F0B1F9F8BD093B000870B50400B7
:1024F00004D094F84100002510B106E0012070BD21
:1025000084F84050204600F023F8242084F841004D
:102510002068C16821F40051C160204601F008FC28
:102520002068016921F4904101612068416921F02E
:102530002A0141612068C16841F40051C1606564AD
:10254000202084F8410084F842006563002070BDBB
:102550002DE9F04F87B0054614216846FDF789FE46
:10256000AC48AB4F1038D5F800C00024A94B02216D
:102570000322DFF8A4A206154FF0080E4FF0006901
:10258000BC454AD11F6847F480171F601B6803F4DD
:1025900080130593036843F004030360036803F0AA
:1025A00004030593036843F00803036000688B4647
:1025B00000F008000590C802CDE9000BCDE9024209
:1025C000904677466946CDF810E05046FEF79AFEF1
:1025D0000420CDE9000BCDE90248694604978F48F5
:1025E000FEF790FE8F4F8E483860C7E90194C7E927
:1025F00003467C61BC61FC613C6238467C62FEF74C
:10260000CDFD08B1FEF7D9FBEF630022114635205E
:10261000BD63FEF7DDFF352040E0DFF80C82DFF818
:10262000F4B107270BF1040BC4453CD1DBF800C023
:102630004CF0100CCBF800C0DBF8003003F01003B6
:102640000593036843F001030360006800F0010094
:1026500005904FF4C0608DE81300CDE9032769466B
:102660007248FEF74FFE6F4F714860373860C7E918
:102670000194C7E903467C61BC61FC613C62384659
:102680007C62FEF78BFD08B1FEF797FBEF6300223B
:1026900003212520BD63FEF79BFF2520FEF78AFF5F
:1026A00007B0BDE8F08FDFF88C81C44537D1D3F88F
:1026B00000C04CF4003CC3F800C01B6803F40033B6
:1026C0000593036843F001030360006800F0010014
:1026D00005900C208DE81300CDE903276946534887
:1026E000FEF710FE4F4F4E48C03778303860C7E9CC
:1026F0000194C7E903467C61BC61FC613C623846D9
:102700007C62FEF74BFD08B1FEF757FBEF6300223A
:1027100003212620BD63FEF75BFF2620BEE7DFF81E
:102720001881C44537D1D3F800C04CF4802CC3F8CD
:1027300000C01B6803F480230593036843F004037F
:102740000360006800F0040005904FF440608DE8DD
:102750001300CDE9032769465046FEF7D3FD304804
:10276000364F18303860C7E90194C7E903467C61E9
:10277000BC61FC613C6238467C62FEF70FFD08B12B
:10278000FEF71BFBEF63002203212720BD63FEF74A
:102790001FFF272082E72A4B9C4581D1DBF8007080
:1027A00047F02007CBF80070DBF8003003F020037F
:1027B0000593036843F004030360006800F004001D
:1027C0000590C0208DE81300CDE9032E69465046E0
:1027D000FEF798FD194F16486037183838608005A5
:1027E000C7E90104C7E903467C61BC61FC613C6246
:1027F00038467C62FEF7D2FC08B1FEF7DEFAEF63E2
:10280000002203214720BD63FEF7E2FE472045E793
:10281000005000404038024000080240000C0240D6
:1028200010600240600300200010014000000240E0
:102830004064024000440040004800408004002002
:1028400000140140704770477047FEE77047000072
:102850002DE9F05F2DED028B02F0A6FA02F04CFBA1
:1028600001F032FD01F07CFC02F09EF800F01CFF4C
:1028700001F054FFFEF70EFBFEF706FB6C4C05461D
:10288000DFF8B08120786C4F9FED6C8A6C4E8542EA
:1028900017D0022D0ED0002000F096FE72B686ED05
:1028A000D88A86EDD58A86EDD68A86EDD78A62B635
:1028B000257014E0012000F087FE00F0C3FC2570B5
:1028C00001E0022D0BD1387810B198F8010030B931
:1028D000FEF7D0FA002000F077FE00F01FFEFEF7B2
:1028E000D3FA02286CD196F86403B346002867D067
:1028F0003878002864D07878BA46002860D098F8F4
:10290000010000285CD04F4890ED010ABDEEC00ADE
:1029100010EE101A90ED000A49B2BDEEC00A10EE9A
:10292000102A90ED030A57B2BDEEC00A10EE102A2D
:1029300090ED020A4FFA82F9BDEEC00A10EE102A9D
:1029400090ED040A55B2BDEEC00A10EE102A90EDCB
:10295000070A4FFA82F8BDEEC00A10EE100A46B21E
:1029600001F16400C82803D807F16400C82805D91C
:10297000BDEC028BBDE8F05FFEF77CBA084600F0C4
:1029800037FC84ED010A384600F032FC84ED020A7F
:10299000484600F043FC84ED030A0AF10C00B0EE57
:1029A000401AD0EC042A9AED012ADAED021AD4ED8D
:1029B000020A94ED010A00F073FC10B1FEF75AFA16
:1029C00030E000EE105ADFED200AB6EE001AB8EE45
:1029D000C00A1E4930EE200A20EE010AB5EEC00AF8
:1029E000F1EE10FA02D2B0EE480A05E010EE100A3D
:1029F000884201DDB0EE600A72B658468BEDD80A07
:102A000062B6B8F1500F0DDD502E0BDD90EDD61AE9
:102A1000DBEDD50AF0EE481ABDEC028BBDE8F05FA5
:102A200000F004BDBDEC028BBDE8F05F00F076BDA8
:102A300004000020BC000020C005002000000000B1
:102A400024090020400500200000C8420000C842C0
:102A50007047704770477047704700001D4808B5C1
:102A6000016841F480010160016801F48001009176
:102A7000016841F4001101600068002200F40010B8
:102A8000009011460B20FEF7A3FD0B20FEF792FDF0
:102A9000002202210C20FEF79BFD0C20FEF78AFD90
:102AA000002202211020FEF793FD1020FEF782FD88
:102AB000002202213920FEF78BFD3920FEF77AFD36
:102AC000002202213A20FEF783FDBDE808403A20AB
:102AD000FEF770BD30380240154808B5016841F076
:102AE00080010160016801F080010091016841F0FE
:102AF00001010160016801F001010091016841F0EC
:102B000002010160016801F002010091016841F0D9
:102B100004010160016801F004010091016841F0C5
:102B200008010160006800F00800009008BD000086
:102B30003038024010B586B0002417480094019444
:102B40000294039404941349059401609F21C0E901
:102B5000011441F28731C0E9031444618461FFF735
:102B600067F808B1FEF729F94FF4805000906946E4
:102B70000948FFF7CFF808B1FEF71FF9049404A93C
:102B800005480594FFF70CF8002801D0FEF715F969
:102B900006B010BD00000140D800002010B58EB076
:102BA00000240794089409940A940B941C21684605
:102BB0000C94FDF75EFB23484FF0804101601F211C
:102BC000C0E901144CF24F31C0E903148461FFF7EE
:102BD0002FF808B1FEF7F1F84FF48050079007A9DD
:102BE0001848FFF797F808B1FEF7E7F81548FFF720
:102BF0004CFA08B1FEF7E1F80B940BA911480C94BC
:102C0000FEF7CEFF08B1FEF7D8F86020009040F63E
:102C1000C410CDE90104082269460A480494FFF76C
:102C2000CEF908B1FEF7C9F80C2269460548FFF74E
:102C3000C6F908B1FEF7C1F80248FFF773F90EB004
:102C400010BD00002001002010B58EB000240794B4
:102C5000089409940A940B941C2168460C94FDF77F
:102C600008FB1E481C4901600221C0E9011444F61A
:102C70001F61C0E903148461FEF7DAFF08B1FEF7B3
:102C80009CF84FF48050079007A91448FFF742F8CA
:102C900008B1FEF792F81148FFF7F7F908B1FEF70F
:102CA0008CF80B940BA90D480C94FEF779FF08B132
:102CB000FEF783F86020CDE9000402940C226946F7
:102CC00006480494FFF77BF908B1FEF776F803484D
:102CD000FFF728F90EB010BD000400406801002085
:102CE00010B58EB000240794089409940A940B94AC
:102CF0001C2168460C94FDF7BCFA23482149016069
:102D00001F21C0E901144CF24F31C0E90314846162
:102D1000FEF78EFF08B1FEF750F84FF48050079091
:102D200007A91948FEF7F6FF08B1FEF746F816485E
:102D3000FFF7ABF908B1FEF740F80B940BA9124866
:102D40000C94FEF72DFF08B1FEF737F860200090D5
:102D500040F6C410CDE90104002269460A480494F3
:102D6000FFF72DF908B1FEF728F804226946064856
:102D7000FFF725F908B1FEF720F80348FFF7D2F86E
:102D80000EB010BD00080040B00100200C4810B586
:102D90000A4901604FF4E1314160002181600C2259
:102DA000C160C0E904128161C161FFF79FFB002887
:102DB00003D0BDE81040FEF700B810BD0050004041
:102DC000F80100200C4810B50A4901604FF4E131C8
:102DD0004160002181600C22C160C0E90412816160
:102DE000C161FFF783FB002803D0BDE81040FDF769
:102DF000E4BF10BD00100140400200200C4810B597
:102E00000A4901604FF4E1314160002181600C22E8
:102E1000C160C0E904128161C161FFF767FB00284E
:102E200003D0BDE81040FDF7C8BF10BD004400400E
:102E3000880200200C4810B50A4901604FF4E131C6
:102E40004160002181600C22C160C0E904128161EF
:102E5000C161FFF74BFB002803D0BDE81040FDF730
:102E6000ACBF10BD00480040D00200200C4810B597
:102E70000A4901600B494160002181600C22C16058
:102E8000C0E904128161C161FFF730FB002803D063
:102E9000BDE81040FDF791BF10BD000000140140D7
:102EA00018030020A0680600FEE7FEE710B5B0EEAC
:102EB000401A040023D0C4EC020A30EEC10A94F890
:102EC000480020B184ED021A002084F84800D4EDB7
:102ED0000F0AF5EEC00AF1EE10FA13DDF1EE601AFA
:102EE000F4EEC01AF1EE10FA0CD2F4EEC00AF1EED4
:102EF00010FA07DD84ED021A94ED0A0A10BD9FED69
:102F00003F0A10BDD4ED100AF5EEC00AF1EE10FA3A
:102F10000DDDF4EEC00AF1EE10FA06D3F1EE600A10
:102F2000F4EEC00AF1EE10FA01DDB0EE600A84EDB5
:102F3000030AD4ED110AF5EEC00AF1EE10FA08D931
:102F4000FDF751FED4ED110AB4EEE00AF1EE10FAED
:102F500017D294ED0B0AD4ED030A30EE200A84ED6B
:102F60000B0AD4ED0D0AB4EEE00AF1EE10FA06DC1D
:102F7000F1EE600AB4EEE00AF1EE10FA01D2C4ED0F
:102F80000B0A94ED020A94ED011A70EE411AC4ED99
:102F90000C1A94ED040AD4ED030A20EE200A84ED05
:102FA000070AD4ED050A94ED0B2A60EE820AC4EDFF
:102FB000080A94ED062A30EE200A62EE211AC4EDCA
:102FC000091AD4ED0E0A30EE210AF5EEC00AF1EE30
:102FD00010FA0DDDF4EEC00AF1EE10FA06D3F1EEB0
:102FE000600AF4EEC00AF1EE10FA01DDB0EE600AFC
:102FF00084ED021A84ED0A0A10BD000000000000F2
:1030000010B52DED028BB0EE608AFDF7E4FD10EEF9
:10301000100A084CA04207DCB0EE480AFDF7DBFDC1
:1030200010EE100AA04203DD0120BDEC028B10BDA2
:103030000020FAE700003442002828D080ED000A82
:103040009FED130A00F10C0180ED010A80ED020AE8
:1030500080ED112A81EC040AF3EE040A012180EDCF
:10306000070A80ED080A80ED090A80ED0A0A80ED62
:103070000B0A80ED0C0AC0ED0D0ADFED060AC0ED6B
:103080000E0A80ED0F0A80ED100A80F84810704794
:10309000000000000000C84270B53B4D3C482DEDDB
:1030A000028BF0EE408A9FED398AD5EC040AB0EE2F
:1030B000480AFFF7C1FF10353548B0EE480AD5EC95
:1030C000040AE4300446103DFFF7B6FFB3EE040AED
:1030D000204600F085F820352D48B0EE480AD5ECA2
:1030E000040A4C30203DFFF7A7FF30352948B0EEE9
:1030F000480AD5EC040A0446303DFFF79DFFB3EEC5
:10310000040A204600F06CF80024224802EE104A1F
:1031100001EE904A01EE104A00EE904AB0EE480AE5
:103120004C30FFF789FF40351948B0EE480AD5EC1E
:10313000040A9830403DFFF77FFF50351548B0EE48
:10314000480AD5EC040A9C30FFF776FF9FED121A6F
:10315000F0EE480AB0EE680AFDF7AEFD0C4880EDCF
:10316000860A80F8B44280F8504380F8C84180F85D
:10317000644380F8654380EDD78A80EDD68A80ED80
:10318000D58ABDEC028B70BD4450000800000000E1
:1031900024090020540A00200000C842002816D04C
:1031A00001219FED0B0A80ED030A80ED010A80EDFD
:1031B000020A80ED070A80ED080A80ED090A80ED19
:1031C0000A0A80ED0B0A80ED0C0A80F8481070475F
:1031D00000000000014981F8C8017047240900205F
:1031E00010B5040003D0FDF7FEFC84ED0E0A10BDFF
:1031F00000EE100A10B59FED061ADFED060AB8EED4
:10320000C00AFDF759FDDFED040A20EE200A10BDCB
:103210000000C8420000C8C29A99993E00EE100A08
:1032200010B59FED061ADFED060AB8EEC00AFDF7ED
:1032300043FDF0EE000A20EE200A10BD0000C84257
:103240000000C8C210B51348FFF7A8FF11484C3062
:10325000FFF7A4FF0F489830FFF7A0FF0D48E430B8
:10326000FFF79CFF0C48FFF799FF0B484C30FFF726
:1032700095FF09489C30FFF791FF06489FED070A2C
:10328000002180EDD50A80EDD60A80EDD70A80F8BE
:10329000651310BD24090020540A0020000000001E
:1032A00070B52DED088BF0EE61BAF0EE408AF0EECD
:1032B000449AB0EE63AAF0EE43AAB0EE42BAB0EE82
:1032C000419AB0EE608AB0EE6B0AFDF784FC10EE16
:1032D000100A2F4D2F4CA84207DCB0EE4B0AFDF729
:1032E0007AFC10EE100AA84205DD012084F865037F
:1032F000BDEC088B70BD94F8C80150BBF0EE680AB5
:10330000B0EE6B0A2348FFF7D1FD2248F0EE408A69
:10331000F0EE480AB0EE4B0A4C30FFF7C7FD9FEDC8
:103320001EBADFED1EBAB0EE408AB0EE4B1AF0EED8
:103330006B0AB0EE680AFDF7BFFCF0EE408AB0EE13
:103340004B1AF0EE6B0AB0EE480AFDF7B5FCB0EE92
:10335000408A1048F0EE680AB0EE6A0AE430FFF7DF
:10336000A5FD84EDD50AF0EE480AB0EE4A0A0C48F5
:10337000FFF79CFD0A4884EDD60AF0EE490AB0EE4C
:10338000690A4C30FFF792FD84EDD70A0020AFE7C1
:10339000000034422409002000004843000048C3D4
:1033A000540A00207047000070B51E4C002100BF79
:1033B00000EBC10504EBC102D5E90035C2E90035D7
:1033C000491C0429F4DB002504EBC500416854F8CE
:1033D0003500FEF789FE6D1C042DF5DB002040F65C
:1033E000C41100BF04EBC002526872B1042A11D0AC
:1033F000082A54F83020126811D01164401C0428A7
:10340000F0DB09490120087070BD54F830201268C3
:103410005163F3E754F8302012689163EEE7D1630B
:10342000ECE7000004090020C4000020F0B5364895
:103430002DED028B85B00078002848D0334890F8F5
:103440006513E1BB90F86403C8B330EE202A30EE78
:10345000600A9FED2F8ADFED2F8A72EE012A70EE4F
:10346000010A30EE410A2C4D72EEA12A70EEE10AFB
:1034700030EE210ACDED002ACDED010A8DED020AD4
:1034800032EE410A00246E4630EE610A8DED030AE9
:1034900006EB8407B0EE481A97ED000AF0EE680AD2
:1034A000FDF7FAFB05EBC40087ED000A4068A8B100
:1034B00004281AD008281FD000F08EF800E00AE097
:1034C00055F8341009680864641C042CE0DB05B06E
:1034D000BDEC028BF0BD00F021F8F8E700F07CF8BD
:1034E00055F8341009684863EEE700F075F855F8B0
:1034F000341009688863E7E700F06EF855F8341077
:103500000968C863E0E70000C40000202409002027
:1035100000008C4200000000040900200F49002038
:1035200040F6C41201EBC0035B685BB1042B0ED004
:10353000082B51F830301B680ED01A64401C042848
:10354000F0DB704751F830301B685A63F6E751F8EA
:1035500030301B689A63F1E7DA63EFE70409002073
:103560007047000070B50B4D002400BFFDF7C2FF8F
:1035700004EB440205EB82018B68CE88C31AB34288
:1035800003D3886055F822008047641CE4B2072CFE
:10359000ECD370BD2C00002030B50020094A4FF458
:1035A0007A74012500EB400102EB81018B88B4FBAA
:1035B000F3F3CB8003B9CD80401CC0B20728F1D310
:1035C00030BD00002C00002072B6024981F864036F
:1035D00062B6704724090020DFED070A80EE201A4A
:1035E0009FED060AF0EE400A41EE000ABCEEE00A4A
:1035F00010EE100A704700000000C84200401C4551
:10360000FDF77EBF30B593B030216846FCF731FE40
:1036100014210CA8FCF72DFE1D480025016841F07F
:1036200080510160006800F08050119019480168D5
:1036300041F4804101600068022400F48040119050
:103640000120039010200490009406940820CDE9F6
:103650000750A020CDE9090404200B906846FEF72E
:10366000D3F808B172B6FEE70CA90F2081E831004B
:103670004FF4A0500F904FF48050109005210CA8EB
:10368000FDF7D8FF002801D072B6FEE713B030BDB9
:1036900040380240007000400248016841F4700167
:1036A0000160704788ED00E0114810B501780029ED
:1036B0001DD00021017008460E490A5CFE2A03D184
:1036C0000A1852780A2A07D0401CC0B20B28F4D33B
:1036D000BDE8104000F010B8014406480E22183032
:1036E000FCF7AEFD18210348FCF7C3FDF0E710BD61
:1036F000B40000206008002070B52C4903208A78AF
:1037000013460C5C401C6240C0B20C28F9D3087808
:10371000FE284AD148780A2847D10E7B964244D1E8
:10372000487B552841D12148DFED210A2C30037018
:10373000CA7842700A7982704A79C2708A790271B5
:10374000CA7942710A7A82714A7AC2718C7A047299
:10375000CD7A45728672B0F90020A0F1140100EE16
:10376000102A0A80B0F90230B8EEC00A4B80868871
:103770008E8080EE201AC088C88000EE100A0C727D
:103780004D72B8EE400A21EE000A81ED030A00EE08
:10379000103AB8EEC00A80EE201A00EE100AB8EE19
:1037A000400A21EE000A81ED040A70BD780800206D
:1037B00000401C4610B5182207490848FEF711FDC5
:1037C00007480068016821F008010160BDE8104069
:1037D00018210148FCF74DBD600800208802002038
:1037E0002004002010B5182206490748FEF7F9FC0E
:1037F00006480068016821F00801016004490120C1
:10380000087010BD600800208802002020040020FD
:10381000B40000200148FEF7ECBA0000D8000020F8
:10382000F0B50268274B284D284E294F294C4FF000
:10383000804C984209D0604507D0A84205D0B042DC
:1038400003D0B84201D0A04204D122F0700E4A68E1
:1038500042EA0E0298421BD0604519D0A84217D008
:10386000B04215D0B84213D0A04211D01A4DA84290
:103870000ED01A4DA8420BD0194DA84208D0194DB0
:10388000A84205D0184DA84202D0184DA84203D135
:1038900022F44075CA682A434D6922F080022A4307
:1038A0008D68C5620D688562984201D0A04201D141
:1038B00009690163016841F004010160012141616E
:1038C0000260F0BD0000014000040040000800401C
:1038D000000C004000040140004001400044014051
:1038E0000048014000180040001C0040002000403B
:1038F00010B501F01F030121046A99408C43046252
:10390000016A9A401143016210BD10B5846842EA11
:10391000032224F47F440A432243826010BD82685C
:1039200022F070020A4342F00701816070470000F4
:10393000F0B5036A026A22F00102026242688469F9
:10394000124E24F073050C682C4323F002058B689B
:103950002B430D4DA84201D0B04205D123F00807FA
:10396000CB683B4323F00403A84201D0B04205D109
:103970004D6922F4407215438A692A43426084618A
:10398000496841630362F0BD00000140000401404A
:10399000F0B5026A036A23F0100303624368846986
:1039A0000D6824F4E64444EA05248D6822F02002E0
:1039B00042EA05120F4D104EA84201D0B04206D186
:1039C000CF6822F0800242EA071222F04002A842A9
:1039D00001D0B04207D14D6923F4406343EA850327
:1039E0008D6943EA850343608461496881630262AB
:1039F000F0BD00000000014000040140F0B5026A83
:103A0000036A23F4807303624368C46922F400727A
:103A100024F073050C68124E2C438D6842EA05228F
:103A20000E4DA84201D0B04206D1CF6822F4006208
:103A300042EA072222F48062A84201D0B04207D1B4
:103A40004D6923F4405343EA05138D6943EA051396
:103A50004360C4614968C1630262F0BD0000014077
:103A60000004014030B5046A026A22F48052026206
:103A70004268C3690D6823F4E64343EA05238D6871
:103A800024F4005444EA0534084DA84202D0084DFD
:103A9000A84204D14D6922F4804242EA8512426074
:103AA000C36149680164046230BD00000000014048
:103AB0000004014010B5036A046A24F001040462A2
:103AC000846924F0F00444EA021423F00A020A4351
:103AD0008461026210BD10B5036A046A24F0100408
:103AE0000462846923F0A00324F4704444EA02329F
:103AF00043EA01118261016210BD00000148FEF736
:103B0000B5BB0000F801002010B5806B0021C18515
:103B1000FEF7AAFB10BD70B5846B2068406994F86D
:103B20004110C0F3C0100025212904D118B1E5844B
:103B3000204600F08EF82068406994F84210C0F3E7
:103B40008010222904D118B1E585204600F05AF8EA
:103B5000606C40F0100060642046FEF785FB70BD8D
:103B600010B50146806B096809684FF00002C9056D
:103B70002ED4C28501680C3151E8003F23F48073D4
:103B800041E80034002CF5D10168143151E8003FC0
:103B900023F0010341E80034002CF5D10168143111
:103BA00051E8003F23F0400341E80034002CF5D1F8
:103BB000202180F84210016B012909D101680C31E4
:103BC00051E8003F23F0100341E80034002CF5D108
:103BD0004263016B012902D0FEF734FE10BD818DD6
:103BE000FEF724FB10BD10B5806B01214163016B12
:103BF000012902D0FEF727FE10BD818D4908FEF78E
:103C000015FB10BD01680C3151E8002F22F49072B1
:103C100041E80023002BF5D10168143151E8002F51
:103C200022F0010241E80023002BF5D1016B0129AC
:103C300009D101680C3151E8002F22F0100241E84F
:103C40000023002BF5D1202180F8421000210163D0
:103C5000704701680C3151E8002F22F0C00241E8A2
:103C60000023002BF5D1202180F84110704708B5C2
:103C700090F84210222901D0022008BD82684FF43A
:103C800080539A4201D1016921B1816A9A421BD0C5
:103C90004AB10AE00268816A5268C2F308020A80E7
:103CA000816A891C08E0026972B10268526802F0F8
:103CB0007F020A70816A491C8162C18D491E090414
:103CC000090CC18503D01BE002685268F1E7016866
:103CD000CA6822F02002CA600168CA6822F48072B1
:103CE000CA6001684A6922F001024A61202180F815
:103CF000421000214163026B012A03D0FEF7A2FDAE
:103D0000002008BD016301680C3151E8002F22F04A
:103D1000100241E80023002BF5D101680A68D206A1
:103D200002D50A6849680091818DFEF77FFAE7E7BE
:103D300070B5044600680169E26821F440511143FE
:103D400001612169A068E269084361691143084380
:103D50002168CA6849F20C639A430243CA6020682A
:103D60004169A26921F440711143416131492068E0
:103D7000884202D03049884202D1FDF705FD01E0BA
:103D8000FDF7F2FCE2690023192164253226B2F521
:103D9000004F626828D0A0FB0101930F9200FCF74E
:103DA0000FFA0146B0FBF5F06FF01802504301EB3B
:103DB000800006EB0010B0FBF5F000F0F002B1FB64
:103DC000F5F002EB0012B1FBF5F06FF01803584369
:103DD00001EB800006EB0010B0FBF5F000F00F00E7
:103DE00021681044886070BDA0FB010192185B41FE
:103DF000FCF7E6F90146B0FBF5F00201B1FBF5F086
:103E00006FF01803584301EB800006EBC000B0FBD5
:103E1000F5F000F0F80002EB4002B1FBF5F058437A
:103E200001EB800006EBC000B0FBF5F000F00700EE
:103E3000D6E70000001001400014014038B581624F
:103E400004468285002013466064222284F84220C2
:103E5000E56B1F4AEA63E56B1E4A2A64E56B1E4A5E
:103E6000EA64E26B10650A462168E06B091DFDF704
:103E7000FFF930B110206064202084F84200012056
:103E800038BD2068016840680090206948B120680A
:103E90000C3050E8001F41F4807140E80012002A05
:103EA000F5D12068143050E8001F41F0010140E8CE
:103EB0000012002AF5D12068143050E8001F41F0AC
:103EC000400140E80012002AF5D1002038BD000072
:103ED000613B0008E73B0008173B00080148FEF77C
:103EE000C5B90000400200200148FEF7BFB900003C
:103EF000880200200148FEF7B9B90000D002002076
:103F00000148FEF7B3B9000018030020FEE70907D7
:103F1000090E002804DB00F1E02080F8001470474F
:103F200000F00F0000F1E02080F8141D7047000041
:103F300000487047D400002030B583B0044600F03C
:103F40004BF89FED090B05468DED000B0022214635
:103F50006846FCF706FA284600F054F89DED000B81
:103F600003B030BD000000000000000000000000B1
:103F700010B52DED028BB1EEC08A18EE100A20F0BC
:103F80000040C0F1FF40C00F0AD010EE100A20F030
:103F90000040C0F1FF40C00F04BF012000F032F824
:103FA000B0EE480ABDEC028B10BD0000000000001E
:103FB00000B583B09FED060B0A4601468DED000B60
:103FC0006846FCF7CEF99DED000B03B000BD000084
:103FD0000000000000000000014800687047000079
:103FE000D400002002E008C8121F08C1002AFAD13C
:103FF00070477047002001E001C1121F002AFBD169
:10400000704700000149086070470000D40000209C
:1040100030380A2801D2012070470020704770B55F
:104020000023D525040602D585EA400000E04000C3
:104030005B1CDBB2C0B2082BF4D300230FE0CC5CD6
:1040400060400024060602D585EA400000E04000FA
:10405000641CE4B2C0B2082CF4D35B1CDBB2934204
:10406000EDD370BD10B581889FED1C1A00EE101ABB
:104070001B4AF8EE400A80EE810A10EE101A9142B7
:1040800001DA9FED180A90ED031AD0ED040A164CE0
:1040900081EE002AC0EE801A84ED042AC4ED051AD0
:1040A00094ED060A30EE010A84ED060A94ED070A43
:1040B00030EE200A84ED070A22EE020A01EEA10A80
:1040C000FFF756FF10EE100A0849884201DD012073
:1040D00000E0002084F8200010BD00000024744996
:1040E0006F12833A0AD7233C90050020000020413C
:1040F0000648074AC168914205DD80680549884243
:1041000001D90120704700207047000040050020C1
:104110000000A0420000A0C205480649C2688A42C9
:1041200004D98068884201D9012070470020704777
:10413000400500200000A0C210B5FDF7DBF90649DC
:10414000497839B10549C968401AB0F5FA7F01D2FA
:10415000012010BD002010BDBC0000208400002004
:104160002DE9F05FFDF7C6F9DFF8D4900646002789
:1041700099F80000B84609F1040598B3DFF8C4A027
:1041800089F80080002400BF1AF80410C8292AD139
:104190000AEB04014878182825D18878162822D1FE
:1041A0008B461622C91C1046FFF739FF9BF81910E1
:1041B000884218D1234816220BF103012030FCF766
:1041C0003FF82048203000F057FB012028706E6037
:1041D0006978074611B9687085F80280202119486E
:1041E000FCF747F805E0641CE4B2062CCCD985F84E
:1041F00000806868301A2C2813D9687888B1A878AC
:10420000401CC0B2A8700A280BD30E4985F8018063
:104210004A319C2281F8008081F801808A7081F8FF
:104220000380002F09D199F80000002805D0BDE8CF
:10423000F05F20210348FCF71CB8BDE8F09F0000A8
:10424000B8000020B008002010B520220749084817
:10425000FDF7C7FF07480068016821F00801016009
:10426000BDE8104020210148FCF703B8B008002049
:1042700018030020E004002010B52022064907485A
:10428000FDF7AFFF06480068016821F008010160F2
:1042900004490120087010BDB00800201803002058
:1042A000E0040020B800002010B51C210548FBF7F1
:1042B000E0FF00F073FE03481821BDE810401C30F9
:1042C000FBF7D7BFC005002070B5434E434C002517
:1042D0002DED028B3078207000287BD096ED070AF8
:1042E0009FED3F8ADFED3F8AB0EE481AF0EE680A94
:1042F00000F080F8F0B396ED080AB0EE481AF0EE40
:10430000680A00F077F8A8B396ED040A9FED361A14
:10431000DFED360A00F06EF860B30120607004F142
:104320001C0596ED070AD5ED000AB5EE001A00F05F
:1043300052F984ED010AD5ED010A96ED080AB5EEB1
:10434000001A00F048F984ED020AD5ED020A96ED54
:10435000090AB5EE001A00F03EF99FED258A84EDBA
:10436000030AD5ED030A96ED040AB0EE481A00F0F0
:1043700032F900E02EE084ED040AD5ED040A96ED52
:10438000050AB0EE481A00F026F984ED050AD5EDCD
:10439000050A96ED060AB0EE481A00F01CF984ED05
:1043A000060AD4ED010AC5ED000AD4ED020AC5EDF6
:1043B000010AD4ED030AC5ED020AD4ED040AC5EDE5
:1043C000030AD4ED050AC5ED040A85ED050ABDEC26
:1043D000028B70BD6570FAE704080020C00500205C
:1043E00000003443000034C30000FA440000FAC463
:1043F000CDCCCC3EB4EEE00AF1EE10FA06DBB4EE22
:10440000C10AF1EE10FA01D8012070470020704770
:104410006149497814297CD390F90020002100EEED
:10442000102A5E4AB8EEC00AD2ED000A30EE600AE9
:10443000BDEEC00A10EE103A002B00DA5B420A2BE8
:1044400000DD012190F90130D2ED010A00EE103AB1
:10445000B8EEC00A30EE600ABDEEC00A10EE103AA7
:10446000002B00DA5B420A2B00DD491C90F9023078
:10447000D2ED020A00EE103AB8EEC00A30EE600A41
:10448000BDEEC00A10EE103A002B00DA5B420A2B98
:1044900000DD491C90F90330D2ED030A00EE103A1A
:1044A000B8EEC00A30EE600ABDEEC00A10EE103A57
:1044B000002B00DA5B420A2B00DD491C90F9043026
:1044C000D2ED040A00EE103AB8EEC00A30EE600AEF
:1044D000BDEEC00A10EE103A002B00DA5B42322B20
:1044E00000DD491C90F90530D2ED050A00EE103AC6
:1044F000B8EEC00A30EE600ABDEEC00A10EE103A07
:10450000002B00DA5B42322B00DD491C90F90630AB
:1045100000E03EE000EE103AD2ED060AB8EEC00A26
:1045200030EE600ABDEEC00A10EE103A002B00DA41
:104530005B42322B00DD491C90F90730D2ED070AAF
:1045400000EE103AB8EEC00A30EE600ABDEEC00AC6
:1045500010EE103A002B00DA5B42322B00DD491CD2
:1045600090F90800D2ED080A00EE100AB8EEC00A71
:1045700030EE600ABDEEC00A10EE100A002800DA24
:104580004042322801DD491CC9B2032901D3002071
:104590007047012070470000980000206805002047
:1045A00000F164020A2A04D9BE3A0A2A01D98842D3
:1045B00001D1012070470020704700F164010A29F1
:1045C00005D9411D0A2902D95A380A2801D80120E3
:1045D000704700207047F7EE001A21EE000A31EE16
:1045E000C11A01EE200A7047FCF792FFFFF70AF8A4
:1045F000FEF772FAFEF732FAFEF79CFAFEF7CEFAF1
:10460000FEF76EFBFEF7DEFBFEF714FCFEF72EFC5A
:10461000FEF71AFBFEF7F2FBFEF7B8FBFCF7D0FB48
:10462000FEF7A0FFFCE70000184A10B51648117805
:1046300000EB8103491C83ED000A0323B1FBF3F473
:1046400003FB14111170D0ED000A90ED010A90EDFA
:10465000021AF4EEC00AF1EE10FA05DDF0EE601A6F
:10466000F0EE400AB0EE610AB4EEC10AF1EE10FAC3
:1046700001DDB0EE410AF4EEC00AF1EE10FA01DD00
:10468000B0EE600A10BD0000B40500209C000020C0
:1046900010B50446FCF72EFF124A134950601078FB
:1046A000507214700020ACB1012C15D0022C14D023
:1046B000032C11D181F864039FED0C0A81EDD80A17
:1046C00081EDD50A81EDD60A81EDD70ABDE810400B
:1046D000FEF7B8BD81F8640310BD012381F864338F
:1046E0001072F3E78400002024090020000000007D
:1046F00010B524210648FBF7BCFDFFF75BF8054821
:1047000000219FED050A416080ED020A10BD000006
:10471000900500209C000020000000002DE9F041E1
:10472000FCF7E8FE2D4D07462B4E6868DFED2C0A9E
:10473000391A00202B4CC82904D9217800290BD024
:10474000207002E0317AF52908D06070C4ED040AC7
:10475000C4ED050A84F82000BDE8F081F188224A02
:1047600000EE101A214BB8EE400A10EE101A0A445F
:1047700001219A4202D2727A1E2A06D260702170FA
:10478000C4ED040AC4ED050AE6E7217061702273E6
:1047900084ED010AFFF748FFD5ED020A144930EE17
:1047A000601AB0EEC11A11EE100A884202DDB0EEB6
:1047B000600A09E09FED0F1A20EE010A9FED0E1A24
:1047C00000EE810A85ED020A84ED020A3046FFF709
:1047D00049FC6F60C0E70000900800209C000020AA
:1047E00000000000900500200000B8BD0100320369
:1047F000000016439A99193E9A99593F1B4902782D
:104800004A7442788A748278CA74C2780A750279C6
:104810004A7542798A75B0F9001000EE101A1349F2
:10482000F8EEC00A9FED120A383920EE801ADFED4B
:10483000110A21EE201A81ED071AB0F9022001EECB
:10484000102AB8EEC11A21EE001A21EE201A81EDCD
:10485000081AB0F9040001EE100AB8EEC11A21EEF0
:10486000000A20EE200A81ED090A70473C0800206A
:1048700000000038000034432DE9F05F0024DFF829
:10488000A890824625462646A0462746A34600BF56
:104890001AF8080008F1010101F0FF0859463246F4
:1048A000FBF7BFFC04430D430836F6B248460B2E17
:1048B000EED3C4F30A0120F81710E40A44EA455481
:1048C0000B3E7F1CED0AFFB2F6B20A2FEFD304466F
:1048D000008800F053FA144D14352870608800F0F9
:1048E0004DFA6870A08800F049FAA870E08800F0DE
:1048F00045FAE870208900F041FA2871608900F0DB
:104900003DFA6871A08900F039FAA871E08900F0D9
:1049100035FAE871208A00F031FA2872608A00F0D6
:104920002DFA6872BDE8F09FE60800201B49027866
:104930004A7242788A728278CA72C2780A7302799D
:104940004A7342798A73B0F9001000EE101A1349C5
:10495000F8EEC00A9FED120A383920EE801ADFED1A
:10496000110A21EE201A81ED041AB0F9022001EE9D
:10497000102AB8EEC11A21EE001A21EE201A81ED9C
:10498000051AB0F9040001EE100AB8EEC11A21EEC2
:10499000000A20EE200A81ED060A70473C0800203C
:1049A000000000380000FA442DE9F05FEC4890F870
:1049B0000180EC48B8F1000F90F900A090F9019047
:1049C00090F902B090F903C090F9043090F90520F5
:1049D00090F9067090F9071090F9085090F9094085
:1049E0007ED0E14EF678002E7BD0DF4E86F8038035
:1049F00096F80180B8F1140F03D208F1010886F887
:104A0000018096F80080B8F1000F6BD0834699467C
:104A100090468A46D348FFF7FBFC00287ED0002052
:104A2000B0709BF90010D14E00EE101AD14AF8EE8A
:104A3000C01AC6ED001A9BF9011000EE101AB8EE6C
:104A4000C01A86ED011A9BF9021000EE101AC8492F
:104A5000F8EEC00AC6ED020A9BF9030000EE100A48
:104A600006F12800B8EEC00A86ED030A03688B42FF
:104A700004D211EE90CA944500D1336043688B4252
:104A800004D211EE10CA944500D1736083688B4242
:104A900004D210EE90CA944500D1B360C068884239
:104AA00004D210EE101A914200D1F06096ED040A83
:104AB000BDEEC00A10EE100A41B24846FFF77DFD78
:104AC00028B100EE109AB8EEC00A86ED040A96ED01
:104AD000050ABDEEC00A10EE100A41B2404602E0DF
:104AE00045E08EE0D9E0FFF768FD28B100EE108ABE
:104AF000B8EEC00A86ED050A96ED060ABDEEC00ABC
:104B000010EE100A41B23846FFF757FD28B100EE0B
:104B1000107AB8EEC00A86ED060A00E002E100EE67
:104B200010AAB8EEC00A86ED070A96ED080ABDEE97
:104B3000C00A10EE100A41B22846FFF731FD28B135
:104B400000EE105AB8EEC00A86ED080A14F1230FE1
:104B50000CD014F1410F09D004F16400C92805D22A
:104B600000EE104AB8EEC00A86ED090AEFE000EE4A
:104B700010AA7E48B8EEC00A80ED000A00EE109A36
:104B8000B8EEC00A80ED010A00EE10BAB8EEC00A15
:104B900080ED020A00EE10CAB8EEC00A80ED030AEA
:104BA00000EE103AB8EEC00A80ED040A00EE102ABA
:104BB0002822B8EEC00A80ED050A00EE107AB8EEA1
:104BC000C00A80ED060A00EE101A0146B8EEC00ACF
:104BD00080ED070A00EE105AB8EEC00A80ED080A10
:104BE00000EE104AB8EEC00A80ED090A2830FBF743
:104BF00027FB5D490020087048708870C870BDE8C8
:104C0000F09F00EE10AA5948B8EEC00A283080ED97
:104C1000000A00EE109AB8EEC00A80ED010A00EE1C
:104C200010BAB8EEC00A80ED020A00EE10CAB8EE63
:104C3000C00A80ED030A00EE103AB8EEC00A80ED1B
:104C4000040A00EE102A2822B8EEC00A80ED050AF8
:104C500000EE107AB8EEC00A80ED060A00EE101AD7
:104C60000146B8EEC00A80ED070A00EE105AB8EE11
:104C7000C00A80ED080A00EE104AB8EEC00A80EDC6
:104C8000090A2838FBF7DCFA3748012114220170A1
:104C9000427000228270C170B1E700EE10AA334862
:104CA000B8EEC00A80ED000A00EE109AB8EEC00A15
:104CB00080ED010A00EE10BAB8EEC00A80ED020ADB
:104CC00000EE10CAB8EEC00A80ED030A00EE103AFA
:104CD000B8EEC00A80ED040A00EE102A2822B8EED1
:104CE000C00A80ED050A00EE107AB8EEC00A80ED29
:104CF000060A00EE101A0146B8EEC00A80ED070A57
:104D000000EE105AB8EEC00A80ED080A00EE104A14
:104D1000B8EEC00A80ED090A2830FBF791FA0120AD
:104D200030706CE7B078114C401CB07094ED080AFC
:104D3000BDEEC00A10EE100A41B22846FFF730FC63
:104D400028B100EE105AB8EEC00A84ED080ABDE89A
:104D5000F05F0649282201F12800FBF771BA000034
:104D6000BC000020FA080020980000204005002028
:104D7000000048C20000C8C2FFF766BAAC2802D2E1
:104D80006FF06300704740F21371884201D96420CC
:104D90007047C821AC38484340F2676190FBF1F09E
:104DA000643840B2704700002DE9F0412C4D68781E
:104DB000002852D02B4900266E70802201F180001D
:104DC000FBF73EFA274C3A2180342046FBF75CFA89
:104DD00090B100F8016B264680460024224F08E07F
:104DE00004EB4400314657F82000FBF757FA50B166
:104DF000641C28788442F3DBBDE8F0411948802127
:104E00008030FBF736BA04EB440007EB8004207ACD
:104E100068B101280FD0022817D00328ECD14046F2
:104E2000FBF74AFA00B1012061680870E4E74046E8
:104E3000FBF742FA06E04046FFF77EF851EC100B14
:104E4000FBF747FA61680860D6E700214046FFF7A4
:104E5000AFF8606880ED000BCEE7BDE8F0810000A0
:104E6000A8000020F4050020F406002010B58022E0
:104E700007490848FDF7B5F907480068016821F0BF
:104E800008010160BDE8104080210148FBF7F1B93D
:104E9000F405002040020020C003002070B5084C3B
:104EA0002378142B0AD2074D03EB43065B1C45F80D
:104EB000260005EB860041600272237070BD000081
:104EC000A8000020F406002010B5802206490748FB
:104ED000FDF787F906480068016821F008010160C4
:104EE00004490120487010BDF40500204002002054
:104EF000C0030020A80000202DE9F041FCF7FAFAD9
:104F0000244D064600226868234F311A1046C829EE
:104F100000D938702978002939D0DFF87C802870D2
:104F20000024A8F1200800BF18F8041055291FD14B
:104F3000002308EB0400194610F801C0491C634423
:104F4000C9B2DBB20A29F7D3817A8B4210D14178FA
:104F5000801C51290BD0522904D0532905D0542943
:104F600006D104E0FFF7E2FC01E0FFF747FC012275
:104F7000641CE4B2152CD7D912B1012038706E60D0
:104F8000BDE8F041044820212038FBF772B9BDE8A4
:104F9000F0810000AC0000200408002010B52022A1
:104FA0000A490B48FDF71DF90A480068016821F01D
:104FB0000801016020210548FBF75BF90349002047
:104FC000203108700449486010BD0000E40700204B
:104FD000D002002080040020AC000020074910B55A
:104FE00001200870202206490648FDF7FAF8064815
:104FF0000068016821F00801016010BDAC000020CC
:10500000E4070020D00200208004002000000000FF
:105010000000000001020304060708090000000068
:1050200001020304B0010020000000002001002064
:105030000C0000002001002008000000B00100204A
:1050400004000000CDCCCC3E0000000000000000B9
:105050000000A0410000403F0000000000000000F0
:1050600000000000CDCCCC3E00000000000000009D
:105070000000A0410000403F0000000000000000D0
:10508000000000000000803F000000000000000061
:10509000000000000000803F9A99993E0000000047
:1050A00000000000000610160006101600404040E8
:1050B00040404040404041414141414040404040EB
:1050C0004040404040404040404040404005020297
:1050D0000202020202020202020202020220202056
:1050E00020202020202020020202020202029090B2
:1050F00090909090101010101010101010101010B0
:105100001010101010101010020202020202888803
:10511000888888880808080808080808080808080F
:1051200008080808080808080202020240000000F7
:10513000AD5000085451000800000020D8000000C5
:10514000E43F00082C520008D8000020B8300000CE
:10515000F43F00080024F4000000000000000000FC
:105160000000000000000000680100200C000000AA
:105170000000704100000000000000000000A0419D
:105180004D280008E803000000000000572A00082E
:10519000F401000000000000532A0008C8000000CD
:1051A000000000005128000864000000000000001A
:1051B000592A00083200000000000000512A0008AF
:1051C0000A00000000000000552A0008020000004C
:1051D00000000000000000000000000000000000CF
:1051E00001000000000000000000000000000001BD
:1051F00000000000000000000000000000000000AF
:10520000000000000000000000000000000000009E
:10521000000000000000000000000000010000008D
:0C52200010000000000000000000000072
:040000050800018965
:00000001FF
